:1000000044C100005FC100005DC100005BC1000091
:1000100059C1000057C1000055C1000053C1000084
:1000200051C100004FC100000C94DF290C94AB2A91
:100030000C94E12447C1000045C1000043C1000009
:1000400041C100003FC100000C94FB193BC10000FE
:1000500039C100000C94582535C1000033C100009F
:1000600031C100002FC100002DC100002BC10000D4
:1000700029C1000027C1000025C1000023C10000E4
:10008000CDC100001FC100001DC100001BC1000048
:1000900019C1000017C1000015C1000013C1000004
:1000A00011C100000FC100000DC100001A000400C2
:1000B000160007432C00E10008421E411F002000EB
:1000C0002100220023002400250026001400150032
:1000D00009002B00280029001700060050005200DC
:1000E00051004F0027001E001F002C0000000000E0
:1000F000000000002A2B2800000000000000000083
:100100000000000000000029000000002C1E342028
:10011000212224342627252E362D3738271E1F204E
:100120002122232425263333362E37381F04050693
:100130000708090A0B0C0D0E0F10111213141516D7
:100140001718191A1B1C1D2F3130232D35040506D5
:100150000708090A0B0C0D0E0F10111213141516B7
:100160001718191A1B1C1D2F3130354C00000000C8
:10017000000000000000000000000000000000007F
:10018000000000000000000000000000000000006F
:100190007E0F00D4FFFFFFC70000007810034B0064
:1001A00065007900620069007400380000001C03DB
:1001B00053006800690072006F00670061006E0004
:1001C000650020004C006100620000000403090487
:1001D00009024200020100A0FA0904000001030123
:1001E00001000921110100012244000705810308D3
:1001F00000010904010002030000000921110100AF
:1002000001222200070582032000010705030320C5
:10021000000112010002000000085759008001008F
:10022000010200010660FF0961A1010962150026B3
:10023000FF009520750881020963150026FF0095CF
:100240002075089102C005010906A101050719E002
:1002500029E71500250195087501810295017508AA
:1002600081010507190029FF150026FF0095067575
:100270000881000508190129051500250195057556
:10028000019102950175039101C011241FBECFEFAA
:10029000DAE0DEBFCDBF15E0A0E0B1E0E6E9F3E6CD
:1002A00002C005900D92AA38B107D9F726E0AAE856
:1002B000B5E001C01D92AC3DB207E1F70E94941574
:1002C0000C9442319DCECF93DF93ABE7B5E023E8AA
:1002D00035E061E070E08D91E82FE295EF70EE5D22
:1002E000F0E040818F70EB0101C0CC0F8A95EAF7F6
:1002F0008C2F8095842380832A173B0761F72D98E4
:10030000DF91CF91089510929100109271002D9875
:10031000089581E08093AC051092AA051092AB0578
:100320001092A6058FEF8093A7058093A805809370
:10033000A9051092A5050E944C256093A105709314
:10034000A2058093A3059093A4050E944C25DC018F
:10035000CB018C509E4FAF4FBF4F80939D05909324
:100360009E05A0939F05B093A005E5E9F5E088E020
:1003700011928A95E9F7A7CF0F931F93CF93DF933D
:100380008C01C0E0D0E0BE016370CE0195958795E9
:10039000959587950E947014F80181938F0121969D
:1003A000C830D10581F7DF91CF911F910F9108954A
:1003B000E82FF0E0E558FA4F2081E22FE295EF7048
:1003C000EE5DF0E030812F7081E001C0880F2A954A
:1003D000EAF780958323808308956115A9F0E82FBB
:1003E000F0E0E558FA4F8081E82FE295EF70EE5D7E
:1003F000F0E090818F7021E001C0220F8A95EAF72A
:10040000892F822B80830895D3CF883008F4E5CFDD
:10041000611511F02D9A08952D9808951F921FB619
:100420001F9211248F939F938091BE05811102C06A
:100430002D980CC08091BD058F5F8093BD05909174
:10044000BD058091BC05981798F72D9A9F918F91C3
:100450001F901FBE1F901895ABE7B5E041E050E03C
:100460008D91E82FE295EF70EF5DF0E020818F70C5
:10047000BA0101C0660F8A95EAF7862F822B808326
:1004800085E0A338B80761F7259A1DDF0E944C2547
:10049000CB010C949C30A8E1B0E0E1E5F2E00C94D3
:1004A00021308E010F5E1F4FC80166DF2091C80505
:1004B000902F812F2115B1F01092C80540E064E023
:1004C00070E08EE292E00E9477168FEF9DE222E2CA
:1004D000815090402040E1F700C000006896ECE0B9
:1004E0000C943D300989011509F464C02A8921154D
:1004F00009F460C02D89211509F45CC02E892115ED
:1005000009F458C02B89211155C02C89211152C0E2
:100510002F8921114FC0288D21114CC08091900549
:1005200081110DC00E944C25609391057093920536
:10053000809393059093940581E08093900560915A
:1005400091057091920580919305909194050E9478
:10055000C824603D77408105910508F4BFCF81E054
:1005600090914E02911180E080934E021092CA0544
:10057000AADE40E065E070E086E092E00E94771637
:100580008FEF9BE42DE1815090402040E1F700C0C7
:10059000000080914E02811103C081E08093C90563
:1005A000109290058FEF99E628E18150904020400D
:1005B000E1F792CF109290052091C9052115D1F055
:1005C00001118CCF8A89811189CF8B89811186CFC6
:1005D0008C89811183CF8D89811180CF8E89811182
:1005E0007DCF8F8981117ACF888D811177CF10923D
:1005F000C90574CF20914E02213009F46FCF1091BC
:10060000CA05111509F4CCC08B898115A9F18C8913
:10061000811591F18F89811579F1888D811561F1AD
:1006200001112AC08A89811127C08D89811124C0B6
:100630008E89811121C00E94C30B1092BE0563DE1A
:100640001092CA050E944C2560938C0570938D050D
:1006500080938E0590938F0536DE40E061E070E078
:1006600086E091E00E9477168FEF95EA2EE08150A8
:1006700090402040E1F730CF60918C0570918D055E
:1006800080918E0590918F050E94C8246436710573
:100690008105910560F00E94C30B0E944C25609378
:1006A0008C0570938D0580938E0590938F05109126
:1006B000CA05123009F4EDC0133009F423C2113019
:1006C00009F00CCF8E010F5F1F4FC80155DEF0906F
:1006D00005016801F80180E090E02191211539F0D1
:1006E000DC01A054BA4F2C91211101C0F82E0196C3
:1006F0008730910591F7F092050130ECA32E35E09B
:10070000B32E4801E12CF40161914F01F501819173
:100710005F01681719F062938E2D5FDEE3948E2DD2
:10072000883089F7E884F7FC0BC0F801EF0DF11D64
:10073000F7FCFA95808181110DC08FEF8093050140
:1007400080E090E0F6012081211509F48DC0F82E9B
:100750008093050180910401F81205C08091BF05C6
:10076000E81609F4BBCE0E9413168091050124E01F
:100770008202C0011124E11409F488C0855C9A4FFB
:10078000FC01608171818281938140E050E00E9490
:100790007C178091050180930401E092BF059ECEF5
:1007A000E92EF82EF70161917F01812F16DE1F5F80
:1007B0001830C1F7011509F491CE9B898C892A89DB
:1007C000211509F436C3911189CE811187CE8D8907
:1007D000811184CE8E89811181CE8F8981117ECE47
:1007E000888D81117BCE6FDDCED70E944C25609322
:1007F0008C0570938D0580938E0590938F05E0ECAA
:10080000F5E011921A95E9F78FEF80930501809337
:1008100004011092BF050E94131655DD81E08093FC
:10082000CA058093C8058093C90558CE811509F47F
:1008300055CE8D89811152CE8E8981114FCE8F89EF
:1008400081114CCE888D811149CE3DDD9CD70E940F
:100850004C2560938C0570938D0580938E05909345
:100860008F0557DD83E021C32FEFC21AD20A01960C
:100870008730910509F066CF8091040187FD2ECE67
:100880000E9413168FEF8093040128CE855A9A4F49
:1008900077CFCE01019670DDCE010196FC0108965E
:1008A0002081F22E211104C03196E817F907C1F713
:1008B0008091AD05811509F445C08091BE05811573
:1008C00009F16091B8057091B9058091BA059091D0
:1008D000BB050E94C82420ED37E040E050E00E94B4
:1008E000EC2FCB0182959295907F9827807F982757
:1008F00060ED77E00E94C52F655D7A4FFB01808136
:100900008093BC05F114D9F08091AE05811117C018
:10091000E091B605F0E0EE5DFA4F60E0808175DDB4
:100920001092BE05F0DC1092AD050E944C2560933C
:10093000AF057093B0058093B1059093B205F09226
:10094000AE05CCCDE091B505F0E0EE0FFF1FE85EFF
:10095000FA4F008111816091AF057091B0058091CF
:10096000B1059091B2050E94C824601771078105F6
:10097000910540F10091B60510E0F801EE5DFA4FE7
:1009800060E0808142DDC801019669E070E00E946C
:10099000D92F8093B6058E5D9A4F61E0FC0180816E
:1009A00034DD40E061E070E08EE091E00E94771677
:1009B0000E944C256093AF057093B0058093B105FC
:1009C0009093B205F11409F4BACF8091AE0581116C
:1009D000B6CFE091B605F0E0EE5DFA4F1081809160
:1009E000B70561E018135BC010DD40E066E070E021
:1009F00086ED91E00E9477168FEF9BE42DE1815008
:100A000090402040E1F700C0000081E08093BE05E7
:100A10000E944C256093B8057093B9058093BA0580
:100A20009093BB051092BD051092BC0510929100E9
:100A30001092900010929500109294008EE090E039
:100A4000909399008093980082E0809371008AE0EF
:100A5000809391001092B3058091B4058F5F8093CD
:100A6000B405833048F08091B505843028F48F5F59
:100A70008093B5051092B4058FEF95EA2EE0815072
:100A800090402040E1F700C0000010E0812F90DC92
:100A90001F5F1830D9F781E08093AD0550CF812FCB
:100AA000B4DC40E065E070E08EEA91E00E947716E9
:100AB0008FEF91EF2BE2815090402040E1F700C092
:100AC000000060E0812FA1DC8091B3058F5F8093EF
:100AD000B305833020F01092B4051092B3058FEF68
:100AE00095EA2EE0815090402040E1F700C00000E0
:100AF000EADBE091B605F0E0EE5DFA4F61E080815F
:100B000084DCC9CF8091AC05811509F4E7CC6091F4
:100B1000A1057091A2058091A3059091A4050E9462
:100B2000C824603375478105910508F475C080912C
:100B3000A50581116DC01092AC051092A505C3DB0F
:100B400040E06BE070E086E191E00E9477168FEF65
:100B50009DE329E4815090402040E1F700C000006F
:100B60008FEF93EC29E0815090402040E1F700C0E6
:100B700000008091AA059091AB058D3291050CF093
:100B800049C0853091059CF165E070E00E94D92F45
:100B9000062FF12C61E08F2D20DC8F2D8F5FF82E3A
:100BA0000813F8CF8FEF97E823E181509040204061
:100BB000E1F700C0000087DB8FEF93EC29E0815064
:100BC00090402040E1F700C00000115011F740E0D4
:100BD00065E070E08EE691E00E9477168FEF93ED6E
:100BE00020E3815090402040E1F700C0000091DBFD
:100BF00075CCE02FF0E0E955FA4F808187FFD8DB14
:100C0000802F8F5F082F8091A605081790F393CF50
:100C100000E0F9CF08E0BDCF7E0189E0E80EF11CCD
:100C2000C701AADB8091A505811571F09091A605F9
:100C300091116FC088E0FE013996A5E9B5E00190F9
:100C40000D928A95E1F74ACC60919D0570919E05C1
:100C500080919F059091A0050E94C82497FD39C0FE
:100C60006091A1057091A2058091A3059091A405C2
:100C70000E94C824603127E272078105910578F14E
:100C800060327E448105910560F11093A6056E01E6
:100C90008FEFC81AD80AF60188E011928A95E9F711
:100CA00001E010E08091A6051817E8F081E080933C
:100CB000A5050E944C25DC01CB0188539F4FAF4F07
:100CC000BF4F80939D0590939E05A0939F05B09381
:100CD000A0058091A505811509F4ACCFA7CF11E03F
:100CE000D4CF12E0D2CF0E94993068E070E00E9429
:100CF000D92FF601E80FF91F20812111F4CF0083CD
:100D0000E12FF0E0E955FA4F808361E066DB1F5F79
:100D1000C9CF9701A5E9B5E080E047EA55E0F901C0
:100D200060816115C9F16C91611136C0E7EAF5E0A7
:100D30006081681789F131966E2F641B6917C0F3C3
:100D40008091AA059091AB05181619062CF401970D
:100D50008093AA059093AB0540E061E070E086E9DE
:100D600091E00E94771610E08091A605181708F40C
:100D700040C01092A5050E944C25DC01CB01805794
:100D80009E4FAF4FBF4F80939D0590939E05A093BC
:100D90009F05B093A0054ECF2F5F3F4F8F5F1196F9
:100DA000883009F0BCCF27EA35E0F901808187FD62
:100DB00041CFD701A80FB11D87FDBA958C91811540
:100DC00009F438CF31968E2F821B891778F340E0D3
:100DD00062E070E08EE991E00E9477168091AA05AA
:100DE0009091AB0501968093AA059093AB0510E016
:100DF00011C0E12FF0E0E955FA4F808187FFD8DA82
:100E00001F5FB2CFE12FF0E0E955FA4F808187FFF5
:100E1000CFDA1F5F8091A6051817A0F31092A505E1
:100E20000E944C25DC01CB0188539F4FAF4FBF4F31
:100E3000AACF911509F4FACC811150CB8D8981117B
:100E40004DCB8E8981114ACB8F89811147CB888DFB
:100E5000811144CB38DA97D40E944C2560938C05DD
:100E600070938D0580938E0590938F051092B50534
:100E70001092B4051092B3051093B6051093B70500
:100E80001092AE051092AD050E944C256093AF05FF
:100E90007093B0058093B1059093B2050E944C25E4
:100EA0001092BE0530DA0FDA82E08093CA0581E045
:100EB000B8CCFB0180914E02811561F08181880FD1
:100EC000880F9081890F883010F081E00895658146
:100ED00084DAFBCF0895CF93C82F80914E028130E2
:100EE00029F48C2F34D1811521F02D9A8C2FCF919C
:100EF00008952D98FBCF982F942B9430B8F462303E
:100F0000A8F470E0680F711D680F711D660F771FE0
:100F1000660F771F640F711DFB01EE0FFF1FE45575
:100F2000FF4F85919591282F822F089521E090E021
:100F3000FBCF81E0089581E00895FBCF089581E023
:100F40000895B7CF089508950895FDCF08950895A1
:100F50000895A6E0B0E0EFEAF7E00C942A30498368
:100F60005A839E833091D00589819A81311117C0AF
:100F70003E81311589F0211579F013D5182F682F8E
:100F800089819A81EED469817A81812F0E94BA1277
:100F90002696E3E00C944630F4D4182FF4CF01D514
:100FA00069817A81F3CFFC01262F408151816281D2
:100FB000738184819581CDCFCF93DF93EC0161E084
:100FC000F2DFBE01B8DF811529F061E0CE01EBDF71
:100FD000BE01B3DFDF91CF9108950F931F93CF939D
:100FE000DF93EC0160E0DFDF8C01BE01ADDFBE010D
:100FF000C801ABDFDF91CF911F910F9108950F933F
:101000001F93CF93DF93EC0161E0CDDF8C01BE0134
:1010100096DF811106C080E0DF91CF911F910F9183
:101020000895BE01C8018DDF8115A9F3BE01C80175
:101030000E942F22811579F3BE01C8010E94C815B4
:10104000811549F3BE01C8010E94B71E811519F32D
:10105000BE01C8010E945F218115E9F2BE01C801ED
:101060000E94251D8115B9F2BE01C8010E94FC1C19
:10107000811589F2BE01C8010E949F21811559F294
:10108000BE01C8010E94BD13811529F2BE01C8012D
:101090000E94CF13811509F4BECFBE01C8010E9482
:1010A000E913BACF91E001C0990F8A95EAF7892F29
:1010B000B9C3CF93C82F81E00C2E01C0880F0A94CA
:1010C000EAF70E94F5108C2FEDDFCF91089581E0B3
:1010D000089581E00895FBCF08950F931F93CF9358
:1010E000C82F51D30E94211E0E9440258C0140E050
:1010F00063E070E08FE492E00E9477168C2FE9DFC6
:101100008C2FE9DFC8010E94BF248A3F910530F08F
:101110000E941316CF911F910F9108958FE99FE0C0
:101120000197F1F700C00000EDCF81E0D6DF0C940D
:101130007C2580E0D2DF0C948D2509DF0E947D2480
:101140002BD00C9413162AD003DF0C948124982FF3
:1011500092959F7061F420E0982F892F869586954F
:1011600011F02E5F982F892F8695820F089524E025
:10117000F4CF81E008950895CF93DF93D82FF9DF5E
:10118000C82F811511F08D2FF6DF8C2FDF91CF91B5
:1011900008950895F1CF089580E0FCCF0E94912337
:1011A000F9CFCF930E949123C82F8091CB058C1744
:1011B00071F0C093CB050E944C256093CC057093D1
:1011C000CD058093CE059093CF058C2FE3DFCF9193
:1011D0000895ADE0B0E0EFEEF8E00C942B304887D6
:1011E00059876A877B878C879D87911111D71F82CA
:1011F00086E0FE0138969E012F5F3F4FD901019096
:101200000D928A95E1F78D8181110CC029813A8177
:101210004B815C816D817E818F8145D62D96E2E088
:101220000C944730CE010196C7DE8111EFCFF6CF87
:10123000FC012481213019F480819181DEC308955D
:10124000CF93C82F8115B9F08238B9F40E94A0233A
:1012500081FD11C089E30E940C2443D78FEF97EEE4
:1012600023E0815090402040E1F700C0000089E376
:101270000E94122436D7CF910895833899F40E94A2
:10128000A02380FDF8CF83E50E940C242AD78FEF9E
:1012900091EE24E0815090402040E1F700C0000032
:1012A00083E5E6CF843899F40E94A02382FDE3CF42
:1012B00087E40E940C2415D78FEF91EE24E0815033
:1012C00090402040E1F700C0000087E4D1CF845077
:1012D000813A68F48C2F0E94D023811521F08C2F45
:1012E0000E941224FED68C2F0E940C24C3CF8C2F78
:1012F000805E883008F0BFCF81E0C1FD84E0C0FD92
:10130000880FC2FD829565D6B5CF811571F0823800
:1013100069F40E94A02381FF08C089E30E940C2485
:10132000E0D689E30E941224DCC60895833851F484
:101330000E94A02380FFF9CF83E50E940C24D1D620
:1013400083E5F0CF843851F40E94A02382FFEDCFD3
:1013500087E40E940C24C5D687E4E4CF982F9450EC
:10136000913A00F3982F905E9830F8F6982F81E02C
:1013700091FD84E090FD880F92FD829530D6D4CF08
:101380001F93CF93DF93182FEB015ADF209731F48F
:10139000812FBBDFDF91CF911F9108958FE99FE0EF
:1013A0000197F1F700C000002197F0CF60E570E0F1
:1013B000893311F060E070E0E3CF811511F009D6B8
:1013C00090C60895811511F00AD68BC60895A0E045
:1013D000B0E0EDEEF9E00C9425306C01D62FC72F6C
:1013E000FC011581068102950F70E8D5E82E811564
:1013F000E9F0E12E1115D1F08C2F807F803461F05F
:101400008D2F805E883078F18C2F807E803221F4A1
:10141000D23048F1011539F18091800682FF23C056
:1014200082E07BD6CBD591E08927E82E9C2F929540
:101430009F70983009F4ABC0C0F4923030F1925FE5
:101440009F70923008F44BC0E11409F4CBC0B2D5C0
:1014500080FDC8C0F6011582A7D504D2C60170D19F
:10146000A3D509D2BFC0E12CE1CF993009F4F6C071
:101470009A5F9F70923040F7D23F09F0FCC08C2FEA
:101480008F711111F6C0EED1AAC00C2F0F70C031B0
:1014900010F00295007F111581F0011549F08D2F94
:1014A000805E883010F0D11105C0802F92D519D6FA
:1014B0008D2F33C0802F9ED5FACF8D2F26DF0115BB
:1014C00009F4C2CF8D2F805E883010F0D11103C097
:1014D000802F85D502C0802F93D503D6B5CF8C2F12
:1014E0008F70F82EC07FC03219F0F29480EFF8228E
:1014F000D13038F081F1111509F439C00115D1F05E
:10150000D7CF8091800682FD11C0111541F0F114F2
:1015100019F08F2D5ED5E5D580E092DE95CF80E085
:10152000F4DEF11409F490CF8F2DD3CF111551F0C3
:10153000013018F48F2D41DF87CF09F085CF8F2D33
:101540007BD582CF011180CF8F2D3CDF8F2D7FD5B2
:101550008F2D64D579CF111521F0063008F074CFA6
:10156000E9CF053008F070CF8F2D2CDF6DCF01153E
:10157000D9F3D93349F48FEF97EE23E081509040AF
:101580002040E1F700C000008D2FBFDE5DCF8C2F23
:10159000837099F5111123C09D2F929596959770A0
:1015A000990F990F4D2F4F70092E01C0440F0A94C7
:1015B000EAF78D2F8071D4FF07C02FE001C0220F02
:1015C0009A95EAF7822F8095C695C695C370842BAD
:1015D000C23079F0C33079F0C13049F029D10E948E
:1015E0009123D8DDCDB7DEB7E8E00C9441301CD1B3
:1015F000F6CF22D1F4CF16D1F2CF111531F1C0FFC1
:10160000EECF9D2F929596959770990F990F4D2F2C
:101610004F70092E01C0440F0A94EAF78D2F807194
:10162000D4FF07C02FE001C0220F9A95EAF7822F5E
:101630008095C695C695C370842BC23059F0C330CF
:1016400059F0C13029F02FD1CACF823040F2D9CF22
:1016500026D1C5CF2CD1C3CFF7D0C1CFCF701115B4
:1016600029F08C2FFFD08D2FA8DEB9CF8D2FAADEC9
:101670008C2F01D1B4CF58F4D03FB1F0D13F79F0E5
:101680001115B9F1011591F18D2FDADDA8CFD33FF6
:10169000B1F0D43FA9F78091800682FD18C08C2F4D
:1016A0008F71111531F3EFCE111539F0053008F0B7
:1016B00096CF8C2F8F71EAD092CF0630F8CF1115CC
:1016C00021F08C2F8F71C7D08ACFC3D088CF11154E
:1016D00029F063E08C2F8F7109D581CF81E01DD572
:1016E000023008F47CCF82E018D579CF8C2F8F712F
:1016F000CACE011571F0D93349F48FEF97EE23E08C
:10170000815090402040E1F700C000008D2FFDDDAA
:1017100066CF8C2F8F71ADCF0F931F93CF93DF9335
:10172000EC01688179818D8171D18C01C4D079D02F
:10173000B801CE014CDEDF91CF911F910F9108953A
:10174000CF93DF93EC018C81811581F0CE0157DCC2
:1017500081110FC033D4811549F08D81811531F08D
:101760008091800682FF02C082E0D7D4DF91CF91C2
:101770000895CE01D1DFCE0130DCF8CF49D4B1C419
:101780000E941824FBCF33D4FBCF282F92959F7053
:10179000963099F060F4925F9F70923030F4203F61
:1017A000B1F038F481E0283E38F080E008959A5F87
:1017B000F3CF81E0243FC9F7089591E0813F09F01C
:1017C00090E081E0283E08F080E0892B089581E0D8
:1017D0000895FC012481211521F0808191810DD192
:1017E000D4CF80E00895A6E0B0E0E9EFFBE00C94F0
:1017F0002B302696E2E00C944730A7E0B0E0E3E01F
:10180000FCE00C942B302796E2E00C9447300895CE
:10181000FECF0895FDCF0895FADFFCDF8093D50554
:1018200008950895F9CF08959091D505892BF4CFA7
:101830009091D5058923F0CF9091D5058927ECCFDC
:101840004ACB0895E4CF0895FDDFFADF8093D405F5
:10185000089580E0F9CF91E001C0990F8A95EAF7E9
:10186000892FF2CF21E001C0220F8A95EAF78091FB
:10187000D405822BE9CF21E001C0220F8A95EAF737
:10188000822F80959091D4058923DECF21E001C07D
:10189000220F8A95EAF78091D4058227D5CF9091BF
:1018A000D405892BD1CF9091D4058923CDCF9091A8
:1018B000D4058927C9CF0895CF93C1E061FDC4E065
:1018C00060FDCC0F62FDC29593E0769567959A9581
:1018D000E1F79B01220F331F260F371F420F531FC3
:1018E000FA0140E050E090E06191DF019C01042E9C
:1018F00002C0369527950A94E2F72695220B2627F3
:101900002C2326272E934F5F5F4F4330510561F7FD
:10191000CF910895A82FA77023E0969587952A95D3
:10192000E1F79C01220F331F820F931F680F791F6D
:10193000FB0140E050E080E0219130E00A2E02C03F
:10194000369527950A94E2F72170042E01C0220FE4
:101950000A94EAF7822B4F5F5F4F4330510561F7DE
:101960000895262F923060F4843050F434E0939F31
:10197000B0011124680F711D41ED55E0822F9CCFFD
:101980000895923060F4843050F444E0949F9001C4
:10199000112461ED75E0820F932F911DBBCF80E084
:1019A0000895CF92DF92FF920F931F93CF93DF930F
:1019B0006C010091D4058091D505082BC3E0D0E0DF
:1019C00010E0C8010C2E02C0959587950A94E2F7A5
:1019D00080FD0CC02197A8F7F12C8F2DDF91CF91BE
:1019E0001F910F91FF90DF90CF900895FC2EB601CC
:1019F0008C2FCBD5019771F3F0CFCF93DF93EC0110
:101A0000D0DFBE01C2D5DF91CF9108951F93CF9350
:101A1000DF93EB019091D005911531F0CB01EDDF13
:101A2000DF91CF911F910895811551F0CB01B9DF5E
:101A3000182F682FCE0195DFBE01812FA6D5F0CFDC
:101A4000CB019FDF182FF8CFE1E0F0E0DF0101C00C
:101A5000AA0F6A95EAF76A2FDF0101C0AA0F4A951B
:101A6000EAF76A2B01C0EE0F2A95EAF7962F982322
:101A7000961302C08E2B0895E0958E230895242F8F
:101A8000462F682F8091D405DFDFDECE0F931F93A2
:101A90000091D6058091D705801303C01F910F9147
:101AA000089587E0089FF0011124E852FA4F208141
:101AB0003181428153816481758186819EDE0F5F11
:101AC0001F4F0770E7CF209110063091110640910B
:101AD00012065091130660911406709115068091BC
:101AE00016068BCE80911606803170F48091150613
:101AF000811551F0E091D6052091D705309111065E
:101B0000409110062E1301C00895BF0187E0E89FA1
:101B1000F0011124DF01A852BA4F14968C9114974A
:101B2000811549F111968C911197831324C08C91E2
:101B3000841321C015968C91159781111CC01296A3
:101B40008D919D91A0911206B09113068A1B9B0B5B
:101B5000883C910580F4809116068F708061809397
:101B60001606E252FA4F80818F708061808380E197
:101B700096E0E6DD8BCF6F5F7F4FFB01E770C2CF52
:101B80008F929F92AF92BF92DF92EF92FF920F934C
:101B90001F93CF93DF93CDB7DEB72D970FB6F89491
:101BA000DEBF0FBECDBF8C0186E0F801DE011896C6
:101BB00001900D928A95E1F7F801F580848190E11A
:101BC000892E96E0992E90911406911117C08115D7
:101BD00009F416C1F11409F455C1C801FADD8115E3
:101BE00009F450C187E0F801D40101900D928A9563
:101BF000E1F7C4011DDB76DF66DF02C17081A280E0
:101C0000B380D09015062091120630911306A501DD
:101C1000421B530BD11409F4F6C0483C510508F09F
:101C2000C5C0811509F4ECC0309111062181809165
:101C30001606803108F08CC0EF2C231326C030919B
:101C40001006371322C0F11027C08F708061809377
:101C5000160639DF80E196E073DD80911606F80103
:101C60008683E12C8E2D2D960FB6F894DEBF0FBE25
:101C7000CDBFDF91CF911F910F91FF90EF90DF903B
:101C8000BF90AF909F908F9008958091D60530912E
:101C9000D705E82FF114D1F080911606816080936A
:101CA0001606DFCFAF0167E06E9FF0011124E85206
:101CB000FA4F6181261306C06081761303C06581E7
:101CC0006111EBC04F5F5F4FFA01E770E313EACF9A
:101CD000381310C08885998590DE292F22952F70A2
:101CE0009034E0F02A5F2F70223060F1C80128DDC7
:101CF000ED2CB8CFAC0167E0869FF0011124E852CB
:101D0000FA4F8181281306C08081781303C0858132
:101D10008111A7CF4395842F8770DACF9F7022302F
:101D200038F0911551F0F8019681903130F49ACF46
:101D3000911519F0811509F495CF805E883008F46B
:101D400091CFD4CF803F08F48DCF815F8330F7CF20
:101D5000231307C020911006271303C0F11409F4C0
:101D600073C0C80136DD811509F48CC0F11409F483
:101D700089C080911606803280F020911006309143
:101D8000110629833A83AB82BC82909114069D830D
:101D90001E828F83CE010196D3DC87E0F801A0E19B
:101DA000B6E001900D928A95E1F725CF20911606B5
:101DB000203188F4488559856A857B858C859D8589
:101DC00012DD80E196E0BCDCF40187E011928A9597
:101DD000E9F779DE46CF811599F0309111068181BE
:101DE0003813BFCF809110068713BBCFF110B9CF46
:101DF0002683C801A5DCF40187E011928A95E9F7F2
:101E0000EE24E3942FCF483C510508F03EC08115E5
:101E1000B9F3F114B9F1209111068181281329C079
:101E200080911006871325C08091160680FD18C08A
:101E30008031B0F08683807F803F39F08681982F93
:101E4000907F905F8F70892B8683C80179DC87E053
:101E5000F801A0E1B6E001900D928A95E1F7CCCEB1
:101E600087E0F801A0E1B6E001900D928A95E1F7D4
:101E7000C7CFC801AEDC811190CF8091160681607A
:101E800080931606C8015CDCBBCF488559856A85FE
:101E90007B858C859D85A7DC97CF80E196E050DC23
:101EA000E0E1F6E092CFAEE0B0E0E9E5FFE00C94CF
:101EB0002A30288739874A875B876C877D878E879A
:101EC000CE0108965DDE6C85811599F0611539F0BB
:101ED000288539854A855B857D858E858EDC809158
:101EE000D6059091D70589133DC02E96E3E00C945A
:101EF000463087E09E01285F3F4FF90127503109A6
:101F0000D90101900D928A95E1F7611541F3A091F5
:101F1000D7058A2F90E08395877090E0AC012091DF
:101F2000D6052417150691F097E09A9FD001112449
:101F3000A852BA4F9E012F5F3F4FF90101900D92B9
:101F40009A95E1F74093D705A1DDC9CF1CDC10922B
:101F5000D7051092D605E0E1F6E087E011928A9568
:101F6000E9F7BDCF17E0189FC001112488529A4F9E
:101F700007DE811509F4B9CFE091D6051E9FF00167
:101F80001124E852FA4F20813181428153816481CA
:101F90007581868132DC8091D6059091D7050196B6
:101FA00087708093D6059BCF80911F068695869576
:101FB0008695089580911F068770089590911F0659
:101FC000977081E0911101C080E0089580912B0607
:101FD000089590912B06982B90932B060895809549
:101FE000982F80912B06892380932B0608951092B9
:101FF0002B06089590912A06982B90932A0608950F
:102000008095982F80912A06892380932A06089527
:1020100010922A0608950895FECF08959091200603
:10202000292F282329F08095892380932006F4CF37
:1020300008950895FECF089590912106292F282311
:10204000281721F0982B90932106F4CF08959091B2
:102050002106292F282329F08095892380932106A2
:10206000E9CF089580912106811521F01092210673
:1020700080E0E0CF08950F931F93CF93DF9380917B
:102080006702909168028C01C0912B0680912A060C
:10209000C82B80912106811529F0C82B0E94BC23F2
:1020A0008111E0DFF801C083C0916702D09168021E
:1020B00048E050E067E176E0CE010E94A530892B30
:1020C00059F088E0FE01A7E1B6E001900D928A95F3
:1020D000E1F7CE010E94A223DF91CF911F910F91D2
:1020E0000895C9CF08950895FECF08959091800670
:1020F00092FF0EC0982F990F990F990F962B9093DE
:102100001F06B0DB80911F06869586958695ECCFDD
:10211000A9CB10921F0680E0E7CF90911F06809513
:10212000892380931F06282F277059F4891749F0B7
:102130009091800692FF05C08695869586959BDBDB
:10214000E8CF08959091800692FB222720F9281766
:1021500049F080FB92F9909380068FE796E049D092
:1021600082E0DBCF089580918006002482FF0394F3
:10217000802DE8CF81E0E6CF80E0E4CF80E090E002
:10218000BC019DC380E090E0BC0193D3F7CFA4E0F5
:10219000B0E0EDECF0E10C942B3035D340D31C8251
:1021A000CE01049653D381E08093D50559D319828B
:1021B00084E18A83CE01019664D31B82CE0103960B
:1021C00072D30E940C22DEDF2496E2E00C944730AA
:1021D000DECF08952AC3089517D381110C94D3211B
:1021E000089529C3089538C308953AC308953DC397
:1021F000089547C308954CC3089555C3089565C312
:102200000895A6E0B0E0E7E0F1E10C9429300E94E7
:1022100040258C0180912C0690912D068017910706
:1022200079F019821A820E944025BC0149815A81A5
:1022300080E090E00E94E90800932C0610932D06A0
:102240002696E4E00C9445300E944C2560933206BB
:1022500070933306809334069093350660932E0670
:1022600070932F0680933006909331060895089559
:102270000895FDCF08950895FEDFFBCF0C942C0246
:1022800008950895FEDFFACF8BEB93E160D4F0DF81
:10229000F3CF81E0089581E00895FBCF089508957C
:1022A00008950895FCDFFCDFFCCF96DF811101C0AB
:1022B0008FDF86E396E095DF8FE796E098DF0E9458
:1022C000981A91DFAFDA8091D405BACA0E943725F7
:1022D0000E941722B2D3E9DF0E948F230E94C9080F
:1022E00077D5D0CF9BD40E94561E0C949023A6E0A5
:1022F000B0E0EDE7F1E10C942230CDDF811108C0B0
:1023000080DFF0DF0E94D1082696EBE00C943E308F
:102310009FD310917D0680E0F7D2181306C010916C
:102320007E0681E0F1D2181759F38091360681FDBF
:10233000F1D2B3DF982E8DE7A82E86E0B82E10E0FC
:10234000812FE2D2F82EF50181915F01F81661F13B
:102350008F25D82E00E0EE24E3948D2D8E21F1F010
:10236000CC24C3948F2D8E2109F4C12C911489F0B3
:10237000602F812F0E949B2481110BC009831A8337
:102380000E944025BC0149815A8181E09C2D0E9418
:10239000E9084C2D602F812F0E94AF240F5FEE0CB7
:1023A0000430D9F6F501F292812F11E0813041F627
:1023B0004BDFA7CF0F931F93CF93DF93E8D0EC01B0
:1023C000D23508F040C0D03508F0B3C0C83ED105C2
:1023D000F0F4C03ED10560F4C53AD10578F4C430BC
:1023E000D10530F481E0219709F080E0C82FD0E0DA
:1023F000CE01DF91CF911F910F910895CE018D5C99
:102400009109D0654397A0F3C0E0D0E0F1CFD0347C
:1024100090F4D03208F0A0C0CE0191509F31A0F7C7
:102420008D2F58D1082F8C2F90E0B1D0D02FDF7195
:10243000C82FD92BDDCF8C2F90E0A9D0DF70C82F0B
:10244000D92BD06AD5CFC03882E5D807B8F5C036C9
:1024500082E5D80708F051C0C03482E5D807C8F437
:10246000C03282E5D80708F042C08C2F8695869549
:1024700020E2829FC0011124C37021E030E002C03D
:10248000220F331FCA95E2F7E901C82BD92BDD686B
:10249000AFCF8C2F86958695877020E2829FC001F2
:1024A0001124C37021E030E002C0220F331FCA950F
:1024B000E2F7E901C82BD92BDC689ACFC03C82E552
:1024C000D80750F48C2F8F71C03AD24558F5982F09
:1024D00084EF906AEC018CCFCE01805C92458097AE
:1024E00008F092CFDC2FDF71C0EFD06A81CF8C2F44
:1024F0008F71D82FC1EFD06A7BCF8C2F86958695B0
:10250000877020E2829FC0011124C37021E030E077
:1025100002C0220F331FCA95E2F7E901C82BD92B5D
:10252000DA6866CFD7D0982F80E09F71EC01D06237
:102530005FCF8C2F8F71CED053E0CC0FDD1F5A951B
:10254000E1F7DF70282F84FF04C090E1899F90019C
:102550001124C22FD0694CCF8D2F8F71BBD0082F83
:102560008C2F90E014D0302F3F71282F392B306200
:10257000E9013ECF462F723028F4643018F4672FFB
:102580000C94FD1A80E090E00895F4DF13CF803EB4
:102590009105D1F1C8F48133910509F481C048F463
:1025A0008932910509F471C08A32910509F47FC01E
:1025B000089589339105E1F082389105C9F085339A
:1025C000910509F45DC00895843E9105D1F148F468
:1025D000823E910531F1833E910541F181EE90E01B
:1025E0000895863E9105C1F1873E9105F1F1089568
:1025F00020917F06237009F064C02091800623FF9C
:1026000014C089E290E0089520917F0620FD45C026
:102610003091800630FF09C024FD24C083EE90E095
:10262000089520917F0622FDF7CF089520917F061F
:1026300022FD44C03091800630FD43C024FFF5CF19
:1026400011C02091800621FFF0CF80917F0684FD8C
:1026500009C087EE90E0089520917F0623FFE5CF23
:1026600024FFF7CF80E090E0089520917F0623FDBE
:102670002BC03091800631FFE1CF84EE90E00895C9
:1026800020917F0625FFD1CFBCCF20917F0625FD6D
:102690001EC02091800623FFC8CF89E390E00895F3
:1026A00020917F0626FFC1CF8AE290E00895209115
:1026B0007F0626FFBACF81E390E0089582EE90E096
:1026C000089580EE90E0089586EE90E0089585E309
:1026D00090E0089590917F0692FF10C041E0282F6E
:1026E0002471243009F040E031E0282F287128308F
:1026F00009F030E0431711F02CE0822793FF10C05F
:1027000041E0282F2471243109F040E031E0282FE6
:102710002871283109F030E0431711F02CE08227AE
:102720003091800630FF10C051E0282F21712130F8
:1027300009F050E041E0282F2871283009F040E0EE
:10274000541711F029E0822731FF10C041E0282FF3
:102750002171213109F040E031E0282F2871283122
:1027600009F030E0431711F029E0822794FF02C0FE
:1027700083FD877E089580E00895CF939C01205EBD
:102780003245C1E02032310538F4FB01C581C11169
:1027900003C08F710E9459088C2FCF9108959C011E
:1027A000FB018581811599F02B359CE7390769F08C
:1027B0002C359CE7390721F02A353C4721F0089554
:1027C000D2DC80E00895D6DCFCCFD6DCFACF81E005
:1027D00008959C01FB018581811599F021309CE7CA
:1027E000390761F023309CE7390739F021153C4760
:1027F00049F40E94950880E00895ECDC0E94990855
:10280000FACF81E00895089580E090E00E94D430EE
:102810009C0181E0233E3E4F09F080E0089563EE85
:102820007EEF80E090E00C9402316FEF7FEF80E06C
:1028300090E00C940231CF93DF93EC0182E090E0C2
:102840000E94CC308883DF91CF910895FC01608194
:1028500082E090E00C94E83083E090E00C94CC307F
:10286000682F83E090E00C94E830CF93DF93EC0185
:1028700084E090E00E94D43088839983DF91CF91E7
:102880000895FC016081718184E090E00C94023134
:10289000CF93DF93EC0187E090E00E94CC308883F7
:1028A000DF91CF910895FC01608187E090E00C9466
:1028B000E830AB01BC018FE090E00C94FA30AB0142
:1028C000BC0183E190E00C94FA30682F8EE090E038
:1028D0000C94E8300895FECF08950C944B020895AF
:1028E000E82FF0E0ED57F94F808190E021E030E0F3
:1028F00002C0220F331F6A95E2F72823392381E0B3
:10290000232B09F480E00895E82FF0E0ED57F94F0C
:1029100080810895089580EA8A95F1F7089500C0AE
:102920000895F9CF0895F894E82FE295EF70F0E05C
:1029300041A18F7021E001C0220F8A95EAF7922F02
:102940009095942391A392A1822F892B82A37894AE
:1029500008950F931F93CF93DF9384EFE4DF85EF08
:10296000E2DF03E815E0C7E8D5E0F80181918F01C7
:102970008F3F09F0D8DFC017D107B9F7DF91CF91AA
:102980001F910F910895A0E0B0E0E9ECF4E10C9400
:1029900025306C01E62EC62FD0E08E0109571A4F64
:1029A000F80180818F3F09F441C0F894E82FE29547
:1029B000EF70F0E091A18F7021E001C0220F8A95A5
:1029C000EAF7892F822B81A382A12095282322A3B5
:1029D0007894A5DFA3E8B5E031E0F12C2D912F3FED
:1029E00079F0E22FE295EF70E05EF0E0808190E018
:1029F0002F7002C0959587952A95E2F780FF1BC03E
:102A000080E0F82A330F85E0A738B80739F7F801D6
:102A100080818F3F09F087DF61E0F11001C060E045
:102A20008E2D7FDFF601EC0FFD1FF082CDB7DEB7F4
:102A3000E8E00C944130832FE4CF8BDF10928306C3
:102A400010928406109281061092820631D043CFF4
:102A5000A2E0B0E0EEE2F5E10C942A3019821A828D
:102A600060E0CE0101968FDF61E0CE0101968BDF41
:102A700042E050E0CE010196BC0181E896E00E9460
:102A8000A53041E0892B69F440E063E876E081E815
:102A900096E00FD0182F21DF812F2296E3E00C94CF
:102AA000463089819A818093810690938206EDCF8A
:102AB0000895EF92FF920F931F93CF93DF938C01B2
:102AC0007B01C42F411579F081E0809339060E9483
:102AD0004025809337069093380680E0CDB7DEB767
:102AE000E6E00C944330D0913906D115B1F38091D2
:102AF0003706909138060E94BF24059770F342E094
:102B000050E0B801C7010E94A530892B39F0F801C7
:102B100080819181F70180839183CD2F10923906B6
:102B20008C2FDCCFE4CB08950E94DA240E94EA26A1
:102B3000ABDB0E940227CADB0E940B270E940E27F4
:102B4000F1DF0E9424270E94D925ACDBF7CF8093C8
:102B50008A0590938B0508958554990BBC01990FB4
:102B6000990B892F0E94D92C20E030E040E451E4F9
:102B70000E94432C9B01AC0160E070E080E090E497
:102B80000E94EC2D20E030E04CED53E40C94892DB4
:102B9000FB01803824E7920731F48581811571F1BA
:102BA00083D380E00895813824E7920729F4858152
:102BB000811521F18AD3F5CF823824E7920739F4C1
:102BC00085818115D9F02BD08111F4CFE9CF8439DB
:102BD00024E7920759F48581811581F083D440E080
:102BE00064E070E089E692E082D0DBCF85399447DB
:102BF00029F48581811511F078D4F1CF81E0089511
:102C0000ABDF19C2A9DF09C10EC008958091C906C2
:102C100087608093C90689EC96E0EFCA0895809199
:102C2000C9068170089580918902811121C0109296
:102C30004506D6D3109244061092430610924006E1
:102C400010924106E9E8F6E080E090E0A0E8BFEBF2
:102C50001082118282839383A483B58316821782A4
:102C6000389626E0E93CF20799F781E080938902E3
:102C70000895CF92DF92EF92FF92E09145068E1772
:102C800010F5E150E81B88E0E802F0011124E75755
:102C9000F94FC280D380E480F58040E050E09A0193
:102CA000B601C7010E943F2C18166CF4B601C7018B
:102CB0001FD4362F272F432F522FBA01FF90EF90AA
:102CC000DF90CF90089520E030E0C901F4CF9C015F
:102CD000A3E5B7E00E94B62F2091C20230E0220F98
:102CE000331F40E050E00E94EC2FC9010895FF928D
:102CF0000F931F93CF93DF93EC018B01F42E809100
:102D0000C90680FD06C08FDFCDB7DEB7E5E00C94C5
:102D10004430672BC9F380913A06811101C058D025
:102D20008091430681117FDF81E0809344061092F9
:102D30003D06C0938706D0938806009385061093BE
:102D40008606F092CA0610923E0610923F066C81EB
:102D50007D818E819F810E94AB2CCB01B8DFAC01BD
:102D6000688179818A819B81C7D00E9440258093A8
:102D70003B0690933C06E0918706F091880680918F
:102D80003E0690913F0623E0880F991F2A95E1F7B0
:102D9000E80FF91F64817581868197810E94AB2CB1
:102DA000CB0195DF8093400690934106ADCF809193
:102DB000C90680FF06C040E063E070E08AEA92E066
:102DC00096DF0E94402580933B0690933C06089531
:102DD00080913A06811120C089EC96E00CDA80914E
:102DE000C90682FF13DFE9E8F6E080E090E0A0E8A2
:102DF000BFEB1082118282839383A483B5831682F2
:102E00001782389626E0E93CF20799F7E0D281E094
:102E100080933A0608DFCBCF0895A0E0B0E0E3E16D
:102E2000F7E10C9425306B017C019D01A9010E9402
:102E30003F2C87FF04C0F7FAF094F7F8F0948091E4
:102E40004306811509F453C080913A06811101C0EF
:102E5000BFDF09E816E0C7E0D0E09601A701F8015E
:102E600062AD73AD84AD95AD0E943F2C811138C029
:102E7000CE0123E0880F991F2A95E1F78757994FD4
:102E800026E0813C920711F51092C1061092C2060D
:102E9000A0E8BFEB1092C3061092C406A093C5062B
:102EA000B093C6061092C7061092C806C1E0C09340
:102EB000420680914506815080934506811117C0D6
:102EC0008FD2C09389021092430611C028E0FC0102
:102ED0003896DC0101900D922A95E1F70896D0CF43
:102EE000219708501109CF3FDC0709F0B6CFCDB7C5
:102EF000DEB7E8E00C944130A0E0B0E0E2E8F7E1B2
:102F00000C9421304B015C018A018091C90680FF3D
:102F10006FC080913A06811101C05ADF40E050E055
:102F20009A01B401C5010E943F2C87FF04C0B7FA83
:102F3000B094B7F8B094C09145068C2F8150990B8E
:102F40007C018FEFE816FE04B9F5CF5FC93008F4B5
:102F50006FC088E08093450648E350E061E976E081
:102F600089E896E00E94B230C8E081E08093420692
:102F700080934306C150DD0B0E944025FE0123E0F3
:102F8000EE0FFF1F2A95E1F7E757F94F80839183F2
:102F900082829382A482B582068317830E94402591
:102FA00080934F069093500680918902811501F11C
:102FB00019D2109289021CC0C70133E0880F991FF3
:102FC0003A95E1F78757994F6C019401A501FC01EF
:102FD00062817381848195810E943F2C811124C07C
:102FE000E601809145068150990BE816F9062CF010
:102FF000CDB7DEB7ECE00C943D308FEFE81AF80A5D
:1030000088E0FE013896DE0101900D928A95E1F785
:103010000E944025888799878A869B86AC86BD86D4
:103020000E871F872896DDCF81E0E81AF10889CF47
:10303000C09345069ACF4FEF5FEF5ECF4F925F92FE
:103040007F928F929F92AF92BF92CF92DF92EF9238
:10305000FF920F931F93CF93DF93809143068111CB
:1030600005C080914406811509F4A7C00E9440253F
:10307000EC0170904406711020C0712C80914306C1
:10308000C72D811589F0C0915106C11103C0C091AF
:103090005206C72909E816E0E12CF12C809145067B
:1030A000E816F1040CF4E3C080914206811509F49E
:1030B00085C010924206C82F81C080913B06909136
:1030C0003C060E94BF2420914006309141068217A1
:1030D000930798F280913B0690913C060E94BF2492
:1030E0002C018090400690904106C0933B06D093FF
:1030F0003C06A0903E06B0903F06C5010196809325
:103100003E0690933F060E94402580934F06909381
:103110005006C0913E06D0913F06E0908506F090A3
:103120008606CE15DF0558F08091CA06811509F490
:1031300043C010923E0610923F06C0E0D0E00091DE
:1031400087061091880680913D066E0143E0CC0C05
:10315000DD1C4A95E1F7811142C0F50133E0EE0F25
:10316000FF1F3A95E1F7E00FF11FD801AC0DBD1D2F
:103170002D913D914D915D9160817181828193810D
:103180000E943F2C81112BC081E080933D0682E09C
:1031900090E09DDDAC0180E090E0BC01ADDEA0924E
:1031A0003E06B0923F0682E090E091DD7C01E09225
:1031B0004006F092410662CF36DDC0E08C2FDF91F1
:1031C000CF911F910F91FF90EF90DF90CF90BF9024
:1031D000AF909F908F907F905F904F900895520195
:1031E000A818B90810923D06F601E00FF11F64819E
:1031F0007581868197810E94AB2CCB0168DD21E02F
:10320000E21AF1088A159B05F8F4CE15DF0520F0C7
:1032100091E0E92EF12C1DC0A81AB90A2196C0939D
:103220003E06D0933F06FE0123E0EE0FFF1F2A95D6
:10323000E1F7E00FF11F64817581868197810E941B
:10324000AB2CCB0144DDDECF19F310F38A199B09B7
:103250007C0183E0CC0FDD1F8A95E1F7C00FD11F01
:10326000688179818A819B81A70146DEA0CFF80120
:103270008681978101978E3F9F4F78F4808191815D
:103280000E94BF24F801268137818217930728F016
:103290006281738184819581C0DD8FEFE81AF80A1D
:1032A000085F1F4FFBCE08958091C906816080930F
:1032B000C90689EC96E00E94FD10F5DF40E062E06F
:1032C00070E08AE992E013CD089540E062E070E09A
:1032D0008AE892E00CDDF8DF8FEF91EE24E0815078
:1032E00090402040E1F700C000009DDC8091C906BD
:1032F0008E7F8093C90689EC96E00C94FD10CF92E6
:10330000DF92EF92FF926B017C0140E050E09A0166
:103310000E943F2C81110AC0809180008F7C809395
:103320008000FF90EF90DF90CF9008958091800013
:10333000806280938000C0924A06D0924B06E09251
:103340004C06F0924D0620E030E040E051E4B6013A
:10335000C7010E94892D9B01AC0160E074E284E703
:103360009BE40E94432C6B017C010E94AB2C709368
:103370008700609386006091C30270E080E090E077
:103380000E94D92C9601A7010E94892D20E030E0EF
:1033900048EC52E40E94432C0E94AB2C70938B00AB
:1033A00060938A00BECFEFE6F0E080818460808386
:1033B000E0E88081806280830895EFE6F0E080811C
:1033C0008B7F8083E0E880818F7C80830895F5DFA8
:1033D000269A82E0809380008AE18093810008959C
:1033E000ECCF0895E0DF80914306811519F080E06D
:1033F00040DC85CF08951F920F920FB60F921124D3
:10340000EF92FF920F931F932F933F934F935F93EE
:103410006F937F938F939F93AF93BF93EF93FF939C
:103420008091460690914706A0914806B0914906C2
:103430000196A11DB11D8093460690934706A09367
:103440004806B09349066091460670914706809100
:103450004806909149060E94D72C7B018C0120E000
:1034600030E040E85CE360914A0670914B06809141
:103470004C0690914D060E94892D9B01AC01B7012D
:10348000C8010E943F2C87FD12C010924606109280
:1034900047061092480610924906D0DD90914306E7
:1034A00091111AC090914406911116C086DFFF91C8
:1034B000EF91BF91AF919F918F917F916F915F91AC
:1034C0004F913F912F911F910F91FF90EF900F908F
:1034D0000FBE0F901F901895811549F380E0C9DB4E
:1034E0000EDFE5CF10924E06089510924E06089515
:1034F00020914E06211102C01092520608950C949C
:10350000AF2308950C94EA10089580E0FDD98170EE
:1035100008959EDA8FE39CE90197F1F700C000005F
:1035200097DAF3DF811519F0EDDF0C947C2508950F
:10353000F0CF0895A1E0B0E0E0EAFAE10C94273082
:103540007C01FC0160817181828193818E010F5F1A
:103550001F4F40E050E09D019ED1F7018081918195
:10356000A281B3810196A11DB11D80839183A283A5
:10357000B38389812196E6E00C94433084E008957A
:10358000C8C00895F0C008951F93CF93DF93BFD0B4
:10359000C0E010E011C04D2F612F8C2F0E947B07DF
:1035A0009C014D2F612F8C2FDED0DF5FD43099F737
:1035B000812F11E0813011F0D0E0EDCFCF5FC4302A
:1035C00041F7DF91CF911F9108950F931F938A01C7
:1035D0009B0140E050E0BC01CA01EBD01F910F916C
:1035E00008950F931F938A019B0140E050E0BC01B6
:1035F000CA0116D11F910F910895982F942B9430E2
:1036000018F4623008F485C080E090E0089580E10D
:1036100008953CD1CB0108950F931F938A019B011C
:1036200040E050E0BC01CA0136D11F910F910895CE
:103630000F931F938A019B0140E050E0BC01CA0137
:103640006FD11F910F91089563D09CC16F927F92AB
:103650008F929F92BF92CF92DF92EF92FF920F9341
:103660001F93CF93DF9300D000D0CDB7DEB7B82E35
:10367000803118F50BD161507109810991097E01E2
:103680002FEFE21AF20A870121E030E040E050E03B
:1036900002D18981811111C0F9D03B014C01E12C8B
:1036A000F12C6701B1101BC0C982DA82EB82FC8267
:1036B00040E0B8018AE99AE130D50F900F900F9061
:1036C0000F90DF91CF911F910F91FF90EF90DF90BE
:1036D000CF90BF909F908F907F906F900895C3017F
:1036E000D401C816D906EA06FB0639F321E030E01A
:1036F00040E050E0B601C701CED089819FEFC91AE2
:10370000D90AE90AF90A8111EACFBA94CBCF089510
:1037100008950F931F93CF93DF93982F942B94309A
:10372000F8F46230E8F498E0699FE0011124C40FD6
:10373000D11DC40FD11D20E1829FC0011124C80FEB
:10374000D91FCE0189960E94CC30082FCE018A96CF
:103750000E94CC30902FDF91CF911F910F9108954F
:1037600080E090E0F8CF1F93CF93DF93122F982F34
:10377000942B9430D0F46230C0F498E0699FE0015B
:103780001124C40FD11DC40FD11D20E1829FC0019F
:103790001124C80FD91F632FCE0189960E94E830EB
:1037A000612FCE018A960E94E830DF91CF911F9160
:1037B00008958F929F92AF92BF92CF92DF92EF9235
:1037C000FF920F931F936B017C012C0D3D1D4E1D2D
:1037D0005F1D49015A01C814D904EA04FB0459F4D5
:1037E0001F910F91FF90EF90DF90CF90BF90AF901F
:1037F0009F908F90089580E4C816D104E104F104ED
:1038000068F4C60189960E94CC30F80181938F013B
:103810008FEFC81AD80AE80AF80ADDCF80E0F5CFA2
:103820008F929F92AF92BF92CF92DF92EF92FF92D0
:103830000F931F936B017C012C0D3D1D4E1D5F1DD1
:1038400049015A01C814D904EA04FB0459F41F9130
:103850000F91FF90EF90DF90CF90BF90AF909F902F
:103860008F90089580E4C816D104E104F10430F487
:10387000F8016081C60189960E94E8300F5F1F4FF2
:103880008FEFC81AD80AE80AF80ADCCF67E973E0B4
:1038900080E090E008954F925F926F927F928F92B6
:1038A0009F92AF92BF92EF92FF920F931F93CF938D
:1038B000DF934B015C0129013A01E8017B0189E6B4
:1038C000E80EF11C00E010E0C201D301081719074F
:1038D0001A061B0678F0DF91CF911F910F91FF9090
:1038E000EF90BF90AF909F908F907F906F905F9080
:1038F0004F900895C401D501800F911FA11DB11DE6
:1039000087399340A105B10548F4C701800F911F85
:103910000E94CC3089930F5F1F4FD6CF80E0FACF43
:10392000A0E0B0E0E6E9FCE10C941F306B017C0103
:1039300049015A013801EB01C759DF4F8D01C4011C
:10394000D501081719071A061B0628F0CDB7DEB7F0
:10395000EEE00C943B30C601D701800F911FA11DF2
:10396000B11D87399340A105B10548F4F301E00F7B
:10397000F11F6081CE01800F911F0E94E8300F5F20
:103980001F4FDDCFA0E1B0E0E8ECFCE10C941D306E
:10399000FE013196DF0180E11D928A95E9F70AE385
:1039A00010E097E9492E93E0592E612C712C5301B8
:1039B000A4189E2E8F2E6201730181E148165104D6
:1039C000610471041CF080E1C82ED12CA601B50160
:1039D000892D982D0E94D930AC0CBD1C0D2C000CEB
:1039E00000084C185D08600870080150104019F775
:1039F0006096E0E10C943930CF93DF93EB01863190
:103A00009C4709F50E94E60F9D81911599F08A7AED
:103A100091E0811101C090E090935306811541F02F
:103A200085E3FAD60E94711080E0DF91CF9108956E
:103A300089E2F7CF80915306811519F085E3F2D61C
:103A4000F1CF89E2FCCF81E0F0CFCF93DF93EC019F
:103A5000FB018581811509F4F2C09E0130572332A4
:103A6000310508F052C08FE796E00E94F710FE0182
:103A7000E150F047E232F10520F4EB57FE4C0C9494
:103A80000E3080917F06816080937F0637C08091E1
:103A9000800688608093800631C080917F068260B6
:103AA000F3CF80917F068460EFCF80917F0688609E
:103AB000EBCF809180068160EDCF8091800682609F
:103AC000E9CF80917F068061DFCF80917F068062A1
:103AD000DBCF80917F068064D7CF0E94C30B80919B
:103AE0007F068068D1CF80917F068C6080937F06AF
:103AF00040E064E070E084EF92E0F9D88FE796E070
:103B00000E94F9100E94C30B80E0DF91CF910895CD
:103B10008091800683608093800640E064E070E0DE
:103B200084EC92E0EACF80917F068E7FADCF8091CA
:103B30008006877FAFCF80917F068D7FA5CF809154
:103B40007F068B7FA1CF80917F06877F9DCF80915D
:103B500080068E7F9FCF809180068D7F9BCF809146
:103B60007F068F7E91CF80917F068F7D8DCF809154
:103B70007F068F7B89CF0E94C30B80917F068F7752
:103B800083CF80917F06837F80937F0640E062E051
:103B900070E084E193E0B1CF809180068C7F8093C8
:103BA000800640E062E070E084EE92E0A6CF909163
:103BB0007F06892F8B7F92FF8460877F92FF8860CA
:103BC00080937F0640E083FFE2CF93CF8091800611
:103BD000982F909590FB80F990FB81F98093800657
:103BE00040E081FFDFCF9ACF90917F06892F8F7BB6
:103BF00096FF806449CF0E94C30B90917F06892F66
:103C000097FB87F9805840CF81E00E94FF1076CF64
:103C100080E0FBCF90917F06892F8F7E94FF80619B
:103C200033CF90917F06892F8E7F90FF81602CCFBC
:103C300090918006892F877F93FF88602BCF81E04A
:103C400064CF80916C0681110C94041608959C0138
:103C500081E02F3F310508F080E00895F8CF089506
:103C6000F0DF10926C0640E068E070E084EA93E0D8
:103C70003EC810926B0640E068E070E084E293E09A
:103C800036C8DFDF2091C60430E02395237030E092
:103C90002093C60448E2429FC001439F900D112427
:103CA00040E065E070E08C5D9B4F21C8CF93809130
:103CB00068068115E1F080915406909155060097B1
:103CC00071F4DED680935406909355068091560683
:103CD000282F30E0811569F0C90101970EC04FD639
:103CE0002091C4043091C5042817390750F3CF91AF
:103CF0000895809157068150990B40916C064115AB
:103D000091F0285A394FF9012081C22F885A994FD2
:103D1000FC0180810E94021680916C06811519F0C9
:103D20008C2F0E9400168091560690E001966091BB
:103D3000570670E00E94D92F80935606D8CF089579
:103D400081E080936C0640E068E070E084EE93E0F0
:103D50000E947716F4CF089581E080936B0640E0CF
:103D600068E070E084E693E00E947716F4CFEF926B
:103D7000FF921F93CF93DF93CDB7DEB7A3970FB614
:103D8000F894DEBF0FBECDBF7C0180E9E81684E762
:103D9000F80699F4FB018581811509F456C0D0DF3E
:103DA00080E0A3960FB6F894DEBF0FBECDBFDF91C3
:103DB000CF911F91FF90EF90089581E9E81684E775
:103DC000F80639F4FB018581811509F43EC048DF0E
:103DD000E7CF82E9E81684E7F80649F4FB0185811C
:103DE000811599F180916C068111F1CFD8CFE11442
:103DF00081E7F80631F4FB018581811531F1ACDFF3
:103E0000CFCF81E0E81681E7F80631F4FB01858128
:103E10008115D9F02EDFC4CF82E0E81681E7F806DD
:103E200049F4FB018581811581F080916B06811138
:103E3000F1CFE5CF83E9E81684E7F80631F4FB011A
:103E40008581811511F01DDFABCF20916C0621110A
:103E500005C080916B06811509F4C6C0FB01358150
:103E6000311509F44DC080EEE816F10459F4E9DE8D
:103E700081E080936A06109269061092680610929B
:103E800057068ECF82EEE816F10469F4DADE8091EF
:103E90006A06811519F081E08093690610926A061E
:103EA000109268067DCF83EEE816F10489F48091C4
:103EB0006906811529F1C5DE10926A0681E08093BA
:103EC000680610925606109254061092550668CF56
:103ED00082E5E816F10451F48091C4049091C50480
:103EE0000A978093C4049093C5045ACF81E5E816DD
:103EF000F10431F48091C4049091C5040A96F1CF85
:103F00008091C6041091C904813070F413508091DF
:103F1000C704810FFB019081890F618142E050E06D
:103F2000461B182F8CE03BC059F5105E8091C704EA
:103F3000810FFB019081890F618142E050E0461BB7
:103F4000142F110F110F140F180F311509F446C05B
:103F5000211519F0812F0E94001680916A068115A3
:103F600051F080915706E82FF0E0E85AF94F10839E
:103F70008F5F80935706C70171DE91E0892711CFCB
:103F8000823089F4105E8091C704810FFB0190811B
:103F9000890F618142E050E0461B182F87E0489F5F
:103FA000100D1124D2CF833081F643E2E5EFF4E027
:103FB000CE010196DC0101900D924A95E1F7FB01DB
:103FC0004081840F911DE091C704F091C804E80F6F
:103FD000F91F13508081810FFB019FCF211559F2EA
:103FE000812F0E940216C7CF81E0DBCEA0E0B0E0B7
:103FF000ECEFFFE10C942430E82FF0E0E451FF4FA8
:104000009491B92E282F26952695269530E0F90112
:10401000E457FE4FE4908770F12C082E02C0F5940F
:10402000E7940A94E2F7F901E458FE4FC490D12CCA
:10403000082E02C0D594C7940A94E2F724593E4F43
:10404000F901049110E002C0159507958A95E2F7F1
:10405000C62FD0E0E0FC25C0C0FE06C086EE0E9460
:104060002009CE01009759F5BE018B2D0E94C00991
:10407000CE01009761F5C0FC32C0E0FE06C081EEC3
:104080000E948509CE010097C1F500FF05C08CE2B2
:104090000E94D6092097C9F5CDB7DEB7E9E00C94A8
:1040A000403081EE0E942009CE010097A9F2EFE98D
:1040B000FFE03197F1F700C000000197F6CFEFE97C
:1040C000FFE03197F1F700C000000197CBCFEFE997
:1040D000FFE03197F1F700C000000197CACF86EEEC
:1040E0000E948509CE01009741F2EFE9FFE0319788
:1040F000F1F700C000000197F6CFEFE9FFE031973C
:10410000F1F700C000000197BECF8FE99FE0019753
:10411000F1F700C000002197BDCFA0E0B0E0E3E9D7
:10412000F0E20C9424308C017B01B42EC701F8011D
:1041300009958130A0F009F058C0C701F801099530
:10414000C82F813089F4C701F80109950E94D6096A
:104150008B2D90E0009709F040C0C111E7CFCDB79B
:10416000DEB7E9E00C944030823031F4C701F80149
:1041700009950E942009ECCF833031F4C701F80182
:1041800009950E948509E4CF843011F7C701F80131
:104190000995C82FC12CD12CDAE08C2F8053990BB4
:1041A0008A30910568F0C114D10491F2EFE9FFE083
:1041B0003197F1F700C0000081E0C81AD108F3CFB1
:1041C000DC9D9001DD9D300D1124820F931F6C0149
:1041D000C701F8010995C82FE0CFEFE9FFE031975B
:1041E000F1F700C000000197B5CF6B2DFFDE9ECF29
:1041F0000F931F93CF93DF93C42FD22FFC018581A0
:104200008115C9F040936F063BD480936D0690935F
:104210006E068C2F805E883048F481E0C1FD84E01A
:10422000C0FD880FC2FD82950E94DD09DF91CF910C
:104230001F910F91089510916F06141333C0809150
:104240006D0690916E069BD3883C910558F5CD2F55
:10425000C05E1D17C1F0812F805E883048F481E078
:1042600011FD84E010FD880F12FD82950E94E20985
:10427000C83048F481E0D1FD84E0D0FD880FD2FD44
:1042800082950E94DD09802F0E94D60981E0D1FD30
:1042900084E0D0FD880FD2FD8295C83038F60E94A8
:1042A000E209C4CF8C2F805E883008F0BFCF81E058
:1042B000C1FD84E0C0FD880FC2FD8295F0CF0F9351
:1042C000FC01CB01E851FC47E730F10588F5E955E1
:1042D000FE4C0C940E3006E221EE41EE6AE17CE7E2
:1042E00087DF80E00F91089507E225EE45EE6BE150
:1042F0007CE7F6CF06E221EE40EE68E17CE7F0CF06
:1043000007E225EE44EE69E17CE7EACF06E221EE22
:1043100042EE6CE17CE7E4CF07E225EE46EE6DE18C
:104320007CE7DECF08E221E045EE6EE17CE7D8CF06
:10433000FB018581811110926F0681E0D3CFCF936D
:10434000DF9387372CE7920739F088379C47D1F005
:1043500081E0DF91CF910895FB018581811571F096
:1043600019D00E94320C1CD0C82F17D0D82F12D0D1
:104370004C2F6D2F0E943F0D80E0EBCF0BD00E94A1
:104380003B0CF1CFFB018581811511F006D0E9CFFF
:1043900004D0F5CF8091CC0408958091CB0408958A
:1043A0008091CA040895A3E0B0E0E9EDF1E20C9435
:1043B0002B30AE014F5F5F4FCE010296BC010196DC
:1043C00060D18B81863239F48A81833021F481E097
:1043D0009981903109F080E081702396E2E00C949D
:1043E0004730811521F040E163E086E270C14FEF74
:1043F0006FEF8FEFFBCF08950895CF92DF92EF928A
:10440000FF926B017C01F8DFB601C7017FD1FF90FD
:10441000EF90DF90CF90089533D180E0E2DF80E02D
:1044200090E0BC01EADFB0D80FD981E0DACFE3DF5A
:1044300064D1E2DFB8DF811101C0EECF08958111B0
:104440000DC08FE39CE90197F1F700C0000040E048
:1044500063E070E08DEC94E00C94771608959C0175
:10446000FB018581811549F0A90157574038510555
:1044700028F4822FEBD880E0089581E008952FEF93
:10448000FC012083089580E00895FC018081813043
:1044900019F0823031F008958091C90681708183CE
:1044A00008958091C90686958170F9CFFC018081BD
:1044B000813019F0823069F0089591E08181811195
:1044C00001C090E08091C90690FB80F98093C906F5
:1044D000089591E08181811101C090E08091C90629
:1044E00090FB81F9F3CF89EC96E00C94FD10FC0170
:1044F0009C012E5F3F4F9081983031F0993031F020
:10450000973029F4C901D2CFC901BFCFECCF8FEFCB
:1045100080830895FC012181243009F4E8CFAFCFD6
:104520001F93CF93DF93EC01162FADDF811110C0E5
:10453000E881E150E331C0F4F0E0E255FE4C0C9428
:104540000E3019828CE08A83612FCE010E947F1A7F
:10455000DF91CF911F91089589818330C9F038F49C
:10456000813061F0823091F08FEF8883EDCF84301D
:10457000D9F71A821B821C821D82E6CF8DD20E943F
:1045800014306A837B838C839D83DECFB6D0F7CFD4
:104590008A818230C8F61B828111D6CF1C82D4CF8B
:1045A0008981823029F08530F9F68A8148DFCCCFC5
:1045B0006A817B818C819D810E9414301EDFC4CF73
:1045C0004B816A8189810E94C01A98278927982780
:1045D0008C839D83B9CF2C813D81322723273227BD
:1045E0004B816A8189810E94C21AAECF0E94C41A8F
:1045F000ABCF612FCE018EDFA7CF09D88983A4CF9F
:1046000008D898278927982789839A839DCF6B811B
:1046100070E089819A81982789279827AE014C5F9D
:104620005F4F0E940C1B90CF6B8170E089819A8153
:10463000982789279827AE014C5F5F4F0E94181B6F
:1046400083CF02D881CF0E94BE1AD8CF6B8170E091
:1046500089819A81982789279827AE014C5F5F4FFF
:104660000E94E51A71CF6B8170E089819A81982749
:1046700089279827AE014C5F5F4F0E94F11A64CFE3
:104680000895EF92FF920F931F93CF93DF937C01D6
:104690008B01EA01892B31F085E290E00E94CC3059
:1046A000F70180830115110531F086E290E00E9448
:1046B000CC30F8018083209729F087E290E00E94B7
:1046C000CC308883CDB7DEB7E6E00C944330CF938F
:1046D000DF93C62FD42F682F85E290E00E94E83048
:1046E0006C2F86E290E00E94E8306D2F87E290E028
:1046F0000E94E830DF91CF91089588E290E00E9417
:10470000CC30682F70E080E090E0089588E290E07F
:104710000C94E83080937006909371060895089584
:104720000895E0917006F0917106309739F001908C
:10473000F081E02D309711F00995089580E00895FB
:10474000F0CF0895E0917006F0917106309731F046
:104750000280F381E02D309709F009950895E091EA
:104760007006F0917106309731F00284F385E02DE8
:10477000309709F0099508954091670250916802B9
:104780009A012E5F3F4F485F5F4F80E0F9019081B3
:104790002F5F3F4F91118F5F42175307B9F708956D
:1047A000811591F02091670230916802F9013296EB
:1047B000285F3F4F9081981731F03196E217F30749
:1047C000C9F780E0089581E008959C01FC013296CC
:1047D00080E09FEF4081461759F031969F3F19F4D2
:1047E000411101C0982F8F5F8630A1F79F3F09F4D8
:1047F0000895290F311D97FD3A95F90162830895B7
:10480000FC01329608962191261302C0DF011E9208
:10481000E817F907C1F70895682F80916702909112
:104820006802D3CF682F8091670290916802E8CF29
:10483000E0916702F0916802329686E011928A95C3
:10484000E9F708950895FECF08958F5F8093E804F7
:104850006091E5047091E6048091E7049091E8048A
:10486000F2CF83E08093E8046091E5047091E60460
:104870008091E7049091E804E6CFE7CF089581E0C6
:104880008093E8046091E5047091E6048091E70468
:104890009091E804D8CFF3CF089591E0811101C041
:1048A00090E09093E7046091E5047091E6048091B4
:1048B000E7049091E804C7CF8091E70408958093BE
:1048C000E6046091E5047091E6048091E70490911C
:1048D000E804B9CF8091E60408958093E5046091DF
:1048E000E5047091E6048091E7049091E804ABCF71
:1048F0008091E504089508950895FECF08950895E0
:104900000895F9CF0895CF93FADF0E942815F8DFB4
:1049100080E00E948414C82F8093720681E00E9478
:104920008414809373068C2B982F81E0911101C021
:1049300080E0CF910895E82FF0E0EE58F94F8081A4
:1049400090E021E030E002C0220F331F6A95E2F7C9
:104950002823392381E0232B09F480E008954111B5
:104960000DC0E82FF0E0EE58F94F21E001C0220F12
:104970006A95EAF720958081282320830895CF93B4
:10498000DF93EC017DD08C1B9D0BDF91CF910895BF
:10499000EF92FF920F931F937B018C017DD09701C3
:1049A000A801621B730B840B950B1F910F91FF9055
:1049B000EF90089585B7806885BF85B7806885BF0B
:1049C00008951F921FB61F9211248F939F93AF9348
:1049D000BF9380917406811113C08091CB06909192
:1049E000CC06A091CD06B091CE064196A11DB11D79
:1049F0008093CB069093CC06A093CD06B093CE06C1
:104A0000BF91AF919F918F911F901FBE1F901895DE
:104A10008091D306843031F10E949D081092740673
:104A200088E190E020E40FB6F894A89580936000A8
:104A30000FBE2093600083B7817F846083BF83B7FC
:104A4000816083BF7894889583B78E7F83BF0FB6CC
:104A5000F894A8958091600088618093600010921E
:104A600060000FBE08950E94C30B0C94A30882E05F
:104A700084BD93E095BD9AEF97BD80936E00089535
:104A80002FB7F8948091CB069091CC06A091CD06DB
:104A9000B091CE062FBF08952FB7F8946091CB0642
:104AA0007091CC068091CD069091CE062FBF0895CF
:104AB00078941F921FB61F9211248F939F93AF93E8
:104AC000BF938091CB069091CC06A091CD06B0917A
:104AD000CE060196A11DB11D8093CB069093CC0606
:104AE000A093CD06B093CE06BF91AF919F918F91C9
:104AF0001F901FBE1F90189587E797E780930008C7
:104B00009093010888E19AE00FB6F894A8958093F5
:104B100060000FBE90936000FFCF88E19AE00FB66F
:104B2000F894A895809360000FBE90936000FFCF2B
:104B30000895089508959B01BA019091D306943089
:104B4000D9F48F708093E9009FEF8091E80085FD94
:104B500006C085ED8A95F1F700009150B1F780917C
:104B6000E80085FF09C040E050E0C901E0D1809134
:104B7000E8008E778093E8000895603229F440E2DF
:104B800050E0BC0182E0D7CF0895CF93DF93EC01D2
:104B900093DE48E050E0BE0181E0CDDF88E0FE0119
:104BA000A5E7B6E001900D928A95E1F7DF91CF91EC
:104BB0000895A0E2B0E0EFEDF5E20C942B30809187
:104BC000D3068430F1F483E08093E9008091E8001B
:104BD00082FF17C08091E80090E085FF07C040E0A9
:104BE00050E0BD01CE010196EFD191E08091E80047
:104BF0008B778093E800911521F060E2CE01019659
:104C00008FDCA096E2E00C9447308091D2068111AF
:104C100007C068D3B8D38091E20084608093E2003B
:104C200008951092D20608952ADE81E036CE609172
:104C3000CF0681E0611101C080E013CE9091D306D0
:104C400081E0943009F080E06091CF0616CE42E01A
:104C500061EC81E0C3D242E261EC82E0BFD242E289
:104C600060EC83E0BBD29091D30681E0943009F0F0
:104C700080E06091CF06E9CD8091D506893081F141
:104C800048F4823009F496C0833009F457C081306B
:104C900041F008958A3009F480C08B3009F468C06F
:104CA00008958091D406813A09F047C08091E800C8
:104CB000877F8093E8008091D8069091D906892B50
:104CC00059F060E080E090E070E0CBD18091E800A6
:104CD0008B778093E800089568E085E796E0F4CF4D
:104CE0008091D406813249F58091D8069091D906F9
:104CF000892B19F58091E800877F8093E8008091E7
:104D0000E80082FF16C02091F3008091F200922FFC
:104D1000029731F48091F100813011F0863019F45E
:104D20008091F100CCDD8091E8008B778093E800E2
:104D300089C28091D3068111E2CF08958091D40673
:104D4000813AD9F78091D8069091D906892BA9F795
:104D50008091E800877F8093E8008091E80080FFE1
:104D6000FCCFAADD8093F1008091E8008E77DECF42
:104D70008091D406813209F78091D8069091D906A6
:104D8000892BD9F68091E800877F8093E8005AD27A
:104D90008091D60682DD0C94C30B8091D4068132BB
:104DA00061F68091E800877F8093E8004BD2809184
:104DB000D70693CD8091D406813A09F0BECF809179
:104DC000E800877F8093E8008091E80080FFFCCFB7
:104DD0008FDDC8CF84B7877F84BF0FB6F894A895BE
:104DE00080916000886180936000109260000FBE27
:104DF00080E890E00FB6F894809361009093610092
:104E00000FBE49CD6FD2BFD2E2EEF0E08081846068
:104E1000808378941BC589EE94E07CCC8091D30686
:104E2000853029F48091D306853011F01CCE089589
:104E3000EFDD69DD8115B1F38091D106811591F324
:104E400060D00E94C30BEECF08959A014091DA061C
:104E50005091DB0600C0E92FF0E0E330F105C9F026
:104E600078F4E130F10509F444C0E230F10571F461
:104E7000E2E480ED91E0D9018D939D93CF010895F7
:104E8000E132F10521F1E232F10561F1E0E0CF011B
:104E9000F2CF482F50E0813061F04230510581F06F
:104EA000452BA1F7ECECF1E0E491F0E08CEC91E023
:104EB000E2CFEEEAF1E0E491F0E08EEA91E0DBCFC0
:104EC000ECE9F1E0E491F0E08CE991E0D4CFE9E0A5
:104ED00082EE91E06130710570F2C1F6E9E08BEF8E
:104EE00091E0C9CF6130710540F081F684E292E033
:104EF000C2CFE2E182E192E0BECFE4E486E492E058
:104F0000BACF80E189BD82E189BD09B400FEFDCF41
:104F10008091D8008F7D8093D8008091E0008260DE
:104F20008093E0008091E00081FDFCCF0895AF9276
:104F3000BF92CF92DF92FF920F931F93CF93DF9395
:104F40006C01EB018A019DD1F82E811123C001155E
:104F5000110539F0F80180819181C81BD90BC80E69
:104F6000D91EA12CB12C2097A9F08091E80085FDD5
:104F700021C08091E8008E778093E800011511052B
:104F8000A1F0F801808191818A0D9B1D808391831E
:104F900085E0F82E8F2DDF91CF911F910F91FF901B
:104FA000DF90CF90BF90AF9008956BD18115E9F25B
:104FB000F82EF0CFF60181916F018093F1002197D7
:104FC0008FEFA81AB80ACFCFAF92BF92CF92DF92DD
:104FD000FF920F931F93CF93DF936C01EB018A0134
:104FE00050D1F82E811123C00115110539F0F801B7
:104FF00080819181C81BD90BC80ED91EA12CB12C60
:105000002097A9F08091E80085FD21C08091E800FB
:105010008B778093E80001151105A1F0F8018081DC
:1050200091818A0D9B1D8083918385E0F82E8F2DC1
:10503000DF91CF911F910F91FF90DF90CF90BF90A4
:10504000AF9008951ED18115E9F2F82EF0CF80912E
:10505000F100F60181936F0121978FEFA81AB80A2A
:10506000CFCFFC012091DA063091DB0626173707F7
:1050700020F06115710569F09B0190E02115310563
:1050800071F491110CC08091E80082FF38C080E07B
:1050900008959091E8009E779093E800EDCF80917D
:1050A000D3068115C1F18530C1F18091E80083FDFF
:1050B00030C08091E80082FDE6CF8091E80080FF5B
:1050C000DDCF8091F3004091F200582F211531057A
:1050D00019F04830510558F091E04830510509F079
:1050E00090E04091E8004E774093E800C7CF81916F
:1050F0008093F100215031094F5F5F4FE7CF8091DE
:10510000D306811541F0853041F08091E80083FF9E
:10511000BACF81E0089582E0089583E00895FC010C
:105120002091DA063091DB062617370720F061154B
:10513000710569F09B0190E02115310571F4911121
:105140000CC08091E80082FF39C080E00895809112
:10515000E8008E778093E800EDCF8091D30681152B
:10516000C9F18530C9F18091E80083FD31C080919B
:10517000E80082FDE6CF8091E80080FFDDCF8091DE
:10518000F3004091F200582F2115310519F04830F5
:10519000510558F091E04830510509F090E08091B8
:1051A000E8008E778093E800C7CF84918093F10068
:1051B0003196215031094F5F5F4FE6CF8091D30682
:1051C000811541F0853041F08091E80083FFB9CF2F
:1051D00081E0089582E0089583E00895982F973044
:1051E00028F08F708093E90081E008959093E900A2
:1051F000242F762F50E0981731F07091EC00209119
:10520000ED005091F00021FD02C09F5FE8CF30918A
:10521000EB003E7F3093EB003091ED003D7F30930B
:10522000ED003091EB0031603093EB007093EC00B7
:105230002093ED005093F0002091EE0027FDE5CF84
:1052400080E008958091D40687FF13C08091E80024
:1052500082FF06C08091E8008B778093E800089574
:105260008091D3068111F2CF08958091D3068115E4
:10527000D9F38091E80080FFF8CF8091E8008E7725
:10528000ECCF2091E4003091E50095E6A901209152
:10529000EC00822F817020FF06C08091E80080FF23
:1052A00006C080E008952091E80022FD1AC0809198
:1052B000D306811589F0853089F08091EB0085FD5A
:1052C0000FC02091E4003091E50042175307F9F236
:1052D0009150E1F684E0089582E0089583E0089516
:1052E00081E008955FD066D0E0EEF0E080818160DB
:1052F0008083E8ED80818F77808319BCA7EDB0E0D3
:105300008C918E7F8C9380818F7E80831092D206C9
:105310000895CF93DF9346D04DD0C8EDD0E088817B
:105320008F77888388818068888388818F7D888350
:1053300019BC1092D3061092CF061092D10610928B
:10534000D006E0EEF0E080818B7F808388818160F1
:10535000888342E060E080E041DFE1EEF0E08081C0
:105360008E7F8083E2EE808181608083808188608F
:105370008083E0EE80818E7F808388818061888356
:10538000DF91CF910895E8EDF0E080818F7E8083FA
:10539000E7ED80818160808384E082BF81E080933B
:1053A000D206B7CFE8EDF0E080818E7F8083109247
:1053B000E20008951092DA001092E10008951F9221
:1053C0000F920FB60F9211242F933F934F935F9339
:1053D0006F937F938F939F93AF93BF93EF93FF93BD
:1053E0008091E10082FF0AC08091E20082FF06C046
:1053F0008091E1008B7F8093E10027D28091DA00D9
:1054000080FF18C08091D80080FF14C08091DA001E
:105410008E7F8093DA008091D90080FF8FC080E179
:1054200089BD82E189BD09B400FEFDCF81E0809392
:10543000D306EBDB8091E10080FF18C08091E20091
:1054400080FF14C08091E2008E7F8093E200809103
:10545000E20080618093E2008091D80080628093B6
:10546000D80019BC85E08093D306E1DB8091E10090
:1054700084FF28C08091E20084FF24C080E189BDC0
:1054800082E189BD09B400FEFDCF8091D8008F7DF7
:105490008093D8008091E1008F7E8093E10080911D
:1054A000E2008F7E8093E2008091E2008160809331
:1054B000E2008091CF06811509F445C084E0809315
:1054C000D306BCDB8091E10083FF27C08091E2001E
:1054D00083FF23C08091E100877F8093E10082E019
:1054E0008093D3061092CF068091E1008E7F809347
:1054F000E1008091E2008E7F8093E2008091E200E3
:1055000080618093E20042E060E080E067DE8091AD
:10551000F00088608093F00087DBFF91EF91BF91EE
:10552000AF919F918F917F916F915F914F913F913B
:105530002F910F900FBE0F901F90189519BC1092CD
:10554000D3066FDB77CF8091E30087FF02C083E053
:10555000B6CF81E0B4CF1F920F920FB60F921124F5
:105560001F932F933F934F935F936F937F938F93EB
:105570009F93AF93BF93CF93DF93EF93FF93E9EEA6
:10558000F0E080811091EC008F7010FB112717F96B
:10559000182B1082C0EFD0E08881877F88837894B1
:1055A0001CD0E9EEF0E010828881886088831F704B
:1055B0001083FF91EF91DF91CF91BF91AF919F91B8
:1055C0008F917F916F915F914F913F912F911F919B
:1055D0000F900FBE0F901F901895AAE2B0E0E2EF77
:1055E000FAE238C584ED96E0FC0101962091F100C5
:1055F000208326E08C3D9207B9F73EDB8091E800DE
:1056000083FF37C08091D4069091D5069A3088F5F3
:10561000E92FF0E0EF53FE4C01C5803889F0823865
:1056200041F58091D8068F70873018F58093E90096
:105630008091EB0085FB882780F91092E90006C075
:105640008091D106880F9091D006892B9091E80027
:10565000977F9093E8008093F1001092F100809181
:10566000E8008E7722C0811115C08091D606813066
:1056700001F18091E80083FF0AC08091E800877FF4
:105680008093E8008091EB0080628093EB00AA9603
:10569000E3E0FCC4823069F78091D606811579F089
:1056A0001092E9008091E800877F8093E800CADDCE
:1056B000E0CF933009F080E08093D106F1CF809164
:1056C000D8068F70282F2150263098F68093E90055
:1056D0002091EB0020FFE4CF933031F48091EB0078
:1056E00080628093EB00DCCF9091EB00906190930F
:1056F000EB0021E001C0220F8A95EAF72093EA002F
:105700001092EA008091EB008860EBCF8111B1CF5D
:105710008091D6068F77182F8091E3008078812BB7
:105720008093E3008091E800877F8093E8008ADD22
:105730008091E80080FFFCCF8091E3008068809337
:10574000E30083E0111101C082E08093D30691CF82
:105750008058823008F08DCF8091D6069091D70680
:105760008C3D23E0920789F583E08A838AE289836E
:105770004FB7F894DE01139620E03EE051E2E32FAC
:10578000F0E050935700849120FF03C082958F7002
:105790003F5F8F708A30B8F0895C8D931D922F5FC8
:1057A000243169F74FBF8091E800877F8093E8003C
:1057B0006AE270E0CE01019654DC8091E8008B77BC
:1057C0008093E80056CF805DE8CF6091D806709155
:1057D000D906AE014F5F5F4F38DBBC01892B09F45E
:1057E00048CF9091E800977F9093E80089819A8153
:1057F00096DCE3CF803809F03CCF8091E800877FCA
:105800008093E8008091CF068093F10028CF81112A
:1058100030CF9091D606923008F02BCF8091E800DF
:10582000877F8093E8009093CF060CDD8091CF06B0
:10583000811529F084E08093D30609DA1ACF80918C
:10584000E30087FDF7CF81E0F6CF0895CF938091F5
:10585000D306811591F08091E900C091EC008F7022
:10586000C0FBCC27C7F9C82B1092E9008091E80053
:1058700083FDB3DECF70C093E900CF910895D4D0FB
:1058800008F481E008950CD00AC102D140F0F9D0AB
:1058900030F021F45F3F19F0EBC0511134C1EEC07C
:1058A0000FD198F39923C9F35523B1F3951B550BE9
:1058B000BB27AA2762177307840738F09F5F5F4FE3
:1058C000220F331F441FAA1FA9F333D00E2E3AF024
:1058D000E0E830D091505040E695001CCAF729D03E
:1058E000FE2F27D0660F771F881FBB1F261737078D
:1058F0004807AB07B0E809F0BB0B802DBF01FF27BD
:1059000093585F4F2AF09E3F510568F0B1C0FBC02D
:105910005F3FECF3983EDCF3869577956795B795F6
:10592000F7959F5FC9F7880F911D9695879597F911
:105930000895E1E0660F771F881FBB1F621773078A
:105940008407BA0720F0621B730B840BBA0BEE1F9F
:1059500088F7E0950895BCD088F09F5790F0B92F54
:105960009927B751A0F0D1F0660F771F881F991FB4
:105970001AF0BA95C9F712C0B13081F0C3D0B1E0C6
:105980000895C0C0672F782F8827B85F39F0B93FD6
:10599000CCF3869577956795B395D9F73EF49095B6
:1059A0008095709561957F4F8F4F9F4F0895E89434
:1059B00009C097FB3EF490958095709561957F4F57
:1059C0008F4F9F4F9923A9F0F92F96E9BB27939505
:1059D000F695879577956795B795F111F8CFFAF415
:1059E000BB0F11F460FF1BC06F5F7F4F8F4F9F4F46
:1059F00016C0882311F096E911C0772321F09EE8A4
:105A0000872F762F05C0662371F096E8862F70E009
:105A100060E02AF09A95660F771F881FDAF7880FE3
:105A20009695879597F90895990F0008550FAA0B39
:105A3000E0E8FEEF16161706E807F907C0F01216A1
:105A40001306E407F50798F0621B730B840B950BA4
:105A500039F40A2661F0232B242B252B21F40895F9
:105A60000A2609F4A140A6958FEF811D811D089596
:105A700097F99F6780E870E060E008959FEF80EC01
:105A8000089500240A9416161706180609060895A4
:105A900000240A9412161306140605060895092E0A
:105AA0000394000C11F4882352F0BB0F40F4BF2B79
:105AB00011F460FF04C06F5F7F4F8F4F9F4F0895B9
:105AC00057FD9058440F551F59F05F3F71F04795AF
:105AD000880F97FB991F61F09F3F79F08795089594
